{
  "transactions": [
    {
      "hash": "0xeaf43b5d95f42caaebf2d01635e631ad8ed847193a39cc3b29d7999f2c005583",
      "transactionType": "CREATE",
      "contractName": "DevOpsTools",
      "contractAddress": "0x129A034062E37dC2C45ADA9D244AD8a04276d368",
      "function": null,
      "arguments": null,
      "transaction": {
        "type": "0x02",
        "from": "0x0c3d5bb381c4904dc83923dc467ce74aa0c92279",
        "gas": "0xebb6e",
        "data": "0x610c7861003a600b82828239805160001a60731461002d57634e487b7160e01b600052600060045260246000fd5b30600052607381538281f3fe730000000000000000000000000000000000000000301460806040526004361061006c5760003560e01c806326dceeb7146100715780632aa1c696146100ae5780633a768463146100e5578063a6066fa514610100578063d76ca83d14610108578063e374cdf11461011b575b600080fd5b81801561007d57600080fd5b5061009161008c366004610897565b61013b565b6040516001600160a01b0390911681526020015b60405180910390f35b6100d86040518060400160405280600b81526020016a0b8bd89c9bd85918d85cdd60aa1b81525081565b6040516100a59190610979565b610091737109709ecfa91a80626ff3989d68f67f5b1dd12d81565b6100d8610507565b6100d861011636600461098c565b610523565b81801561012757600080fd5b506100916101363660046109c1565b6106da565b600061014683610523565b925061015182610523565b60408051600180825281830190925291935060009190816020015b606081526020019060019003908161016c579050509050604051806040016040528060038152602001621c1dd960ea1b815250816000815181106101b2576101b2610a06565b6020908102919091010152604051638916046760e01b8152600090737109709ecfa91a80626ff3989d68f67f5b1dd12d906389160467906101f7908590600401610a1c565b6000604051808303816000875af1158015610216573d6000803e3d6000fd5b505050506040513d6000823e601f3d908101601f1916820160405261023e9190810190610ab5565b60408051600580825260c0820190925291925060009190816020015b606081526020019060019003908161025a579050509050604051806040016040528060048152602001630c4c2e6d60e31b815250816000815181106102a1576102a1610a06565b602002602001018190525081856040516020016102bf929190610afe565b604051602081830303815290604052816001815181106102e1576102e1610a06565b6020026020010181905250878160028151811061030057610300610a06565b602090810291909101015260405163348051d760e11b815260048101889052737109709ecfa91a80626ff3989d68f67f5b1dd12d90636900a3ae90602401600060405180830381865afa15801561035b573d6000803e3d6000fd5b505050506040513d6000823e601f3d908101601f191682016040526103839190810190610ab5565b8160038151811061039657610396610a06565b602002602001018190525081866040516020016103b4929190610b2d565b604051602081830303815290604052816004815181106103d6576103d6610a06565b6020908102919091010152604051638916046760e01b8152600090737109709ecfa91a80626ff3989d68f67f5b1dd12d9063891604679061041b908590600401610a1c565b6000604051808303816000875af115801561043a573d6000803e3d6000fd5b505050506040513d6000823e601f3d908101601f191682016040526104629190810190610ab5565b90506104916040518060400160405280600c81526020016b2932ba3ab937102230ba309d60a11b81525061072c565b61049a81610772565b60006104a582610b69565b60601c905080156104bc5794506104ff9350505050565b60405162461bcd60e51b8152602060048201526014602482015273139bc818dbdb9d1c9858dd0819195c1b1bde595960621b604482015260640160405180910390fd5b949350505050565b604051806060016040528060318152602001610c126031913981565b80516060908290600090815b835181101561057e5783818151811061054a5761054a610a06565b6020910101516001600160f81b031916600160fd1b1461056c5780925061057e565b8061057681610bbb565b91505061052f565b5082515b80156105d85783610594600183610bd4565b815181106105a4576105a4610a06565b6020910101516001600160f81b031916600160fd1b146105c6578091506105d8565b806105d081610be7565b915050610582565b508282815181106105eb576105eb610a06565b01602001516001600160f81b031916601760f91b036106125761060f600183610bfe565b91505b600061061e8383610bd4565b67ffffffffffffffff811115610636576106366107d2565b6040519080825280601f01601f191660200182016040528015610660576020820181803683370190505b50905060005b81518110156106d0578461067a8286610bfe565b8151811061068a5761068a610a06565b602001015160f81c60f81b8282815181106106a7576106a7610a06565b60200101906001600160f81b031916908160001a905350806106c881610bbb565b915050610666565b5095945050505050565b600061072383836040518060400160405280600b81526020016a0b8bd89c9bd85918d85cdd60aa1b815250604051806060016040528060318152602001610c126031913961013b565b90505b92915050565b61076f816040516024016107409190610979565b60408051601f198184030181529190526020810180516001600160e01b031663104c13eb60e21b1790526107b1565b50565b61076f816040516024016107869190610979565b60408051601f198184030181529190526020810180516001600160e01b03166305f3bfab60e11b1790525b80516a636f6e736f6c652e6c6f67602083016000808483855afa5050505050565b634e487b7160e01b600052604160045260246000fd5b604051601f8201601f1916810167ffffffffffffffff81118282101715610811576108116107d2565b604052919050565b600067ffffffffffffffff821115610833576108336107d2565b50601f01601f191660200190565b600082601f83011261085257600080fd5b813561086561086082610819565b6107e8565b81815284602083860101111561087a57600080fd5b816020850160208301376000918101602001919091529392505050565b600080600080608085870312156108ad57600080fd5b843567ffffffffffffffff808211156108c557600080fd5b6108d188838901610841565b95506020870135945060408701359150808211156108ee57600080fd5b6108fa88838901610841565b9350606087013591508082111561091057600080fd5b5061091d87828801610841565b91505092959194509250565b60005b8381101561094457818101518382015260200161092c565b50506000910152565b60008151808452610965816020860160208601610929565b601f01601f19169290920160200192915050565b602081526000610723602083018461094d565b60006020828403121561099e57600080fd5b813567ffffffffffffffff8111156109b557600080fd5b6104ff84828501610841565b600080604083850312156109d457600080fd5b823567ffffffffffffffff8111156109eb57600080fd5b6109f785828601610841565b95602094909401359450505050565b634e487b7160e01b600052603260045260246000fd5b6000602080830181845280855180835260408601915060408160051b870101925083870160005b82811015610a7157603f19888603018452610a5f85835161094d565b94509285019290850190600101610a43565b5092979650505050505050565b6000610a8c61086084610819565b9050828152838383011115610aa057600080fd5b610aae836020830184610929565b9392505050565b600060208284031215610ac757600080fd5b815167ffffffffffffffff811115610ade57600080fd5b8201601f81018413610aef57600080fd5b6104ff84825160208401610a7e565b60008351610b10818460208801610929565b835190830190610b24818360208801610929565b01949350505050565b60008351610b3f818460208801610929565b602f60f81b9083019081528351610b5d816001840160208801610929565b01600101949350505050565b805160208201516bffffffffffffffffffffffff198082169291906014831015610b9d5780818460140360031b1b83161693505b505050919050565b634e487b7160e01b600052601160045260246000fd5b600060018201610bcd57610bcd610ba5565b5060010190565b8181038181111561072657610726610ba5565b600081610bf657610bf6610ba5565b506000190190565b8082018082111561072657610726610ba556fe2e2f6c69622f666f756e6472792d6465766f70732f7372632f6765745f726563656e745f6465706c6f796d656e742e7368a2646970667358221220a8e9f3b3a5e4937fbd0b60d8af80cfdf492e0f3d9b6190845b64fcad9588b1ed64736f6c63430008130033",
        "nonce": "0x41",
        "accessList": []
      },
      "additionalContracts": [],
      "isFixedGasLimit": false
    },
    {
      "hash": "0x072f5888e54cc6905c347a18dd40977afce2c23b6b184dca83ae36acb10f8a5e",
      "transactionType": "CALL",
      "contractName": "VRFCoordinatorV2",
      "contractAddress": "0x8103B0A8A00be2DDC778e6e7eaa21791Cd364625",
      "function": "createSubscription():(uint64)",
      "arguments": [],
      "transaction": {
        "type": "0x02",
        "from": "0x0c3d5bb381c4904dc83923dc467ce74aa0c92279",
        "to": "0x8103b0a8a00be2ddc778e6e7eaa21791cd364625",
        "gas": "0x1558c",
        "value": "0x0",
        "data": "0xa21a23e4",
        "nonce": "0x42",
        "accessList": []
      },
      "additionalContracts": [],
      "isFixedGasLimit": false
    },
    {
      "hash": "0xfe7d92aec37abb9bb00e205eba8ded295375b5778d528db50b661c6a996431b9",
      "transactionType": "CALL",
      "contractName": "LinkToken",
      "contractAddress": "0x779877A7B0D9E8603169DdbD7836e478b4624789",
      "function": "transferAndCall(address,uint256,bytes):(bool)",
      "arguments": [
        "0x8103B0A8A00be2DDC778e6e7eaa21791Cd364625",
        "3000000000000000000",
        "0x000000000000000000000000000000000000000000000000000000000000147c"
      ],
      "transaction": {
        "type": "0x02",
        "from": "0x0c3d5bb381c4904dc83923dc467ce74aa0c92279",
        "to": "0x779877a7b0d9e8603169ddbd7836e478b4624789",
        "gas": "0x1b43f",
        "value": "0x0",
        "data": "0x4000aea00000000000000000000000008103b0a8a00be2ddc778e6e7eaa21791cd36462500000000000000000000000000000000000000000000000029a2241af62c000000000000000000000000000000000000000000000000000000000000000000600000000000000000000000000000000000000000000000000000000000000020000000000000000000000000000000000000000000000000000000000000147c",
        "nonce": "0x43",
        "accessList": []
      },
      "additionalContracts": [],
      "isFixedGasLimit": false
    },
    {
      "hash": "0xbf4154bd5b85e05b7bb549727bc86127c389fc9e39be89f81ff448a7b3587fe5",
      "transactionType": "CREATE",
      "contractName": "Raffle",
      "contractAddress": "0xa26515A027dbf32fF25391B8f6f98CB5a6f6412e",
      "function": null,
      "arguments": [
        "10000000000000000",
        "30",
        "0x8103B0A8A00be2DDC778e6e7eaa21791Cd364625",
        "0x474e34a077df58807dbe9c96d3c009b23b3c6d0cce433e59bbf5b34f823bc56c",
        "5244",
        "500000"
      ],
      "transaction": {
        "type": "0x02",
        "from": "0x0c3d5bb381c4904dc83923dc467ce74aa0c92279",
        "gas": "0xdd97c",
        "value": "0x0",
        "data": "0x61016060405234801561001157600080fd5b50604051610ca1380380610ca183398101604081905261003091610087565b6001600160a01b0393909316608081905260a09590955260c09390935260e093909352610100929092526001600160401b03166101205263ffffffff16610140526002805460ff60a01b1916905542600155610112565b60008060008060008060c087890312156100a057600080fd5b86516020880151604089015191975095506001600160a01b03811681146100c657600080fd5b6060880151608089015191955093506001600160401b03811681146100ea57600080fd5b60a088015190925063ffffffff8116811461010457600080fd5b809150509295509295509295565b60805160a05160c05160e051610100516101205161014051610b28610179600039600061045c01526000610425015260006103ff0152600061049a0152600061054301526000818160a501526102820152600081816101fe01526102400152610b286000f3fe6080604052600436106100915760003560e01c80634585e33b116100595780634585e33b1461013e578063473f1ddc1461015e5780636e04ff0d14610190578063c1c244e8146101be578063e55ae4e8146101d357600080fd5b806309bc33a7146100965780630ea3df38146100d8578063115cbaf5146100ed5780631fe543e3146101145780632cfcc53914610136575b600080fd5b3480156100a257600080fd5b507f00000000000000000000000000000000000000000000000000000000000000005b6040519081526020015b60405180910390f35b3480156100e457600080fd5b506000546100c5565b3480156100f957600080fd5b50600254600160a01b900460ff166040516100cf91906107e1565b34801561012057600080fd5b5061013461012f366004610850565b6101f3565b005b610134610280565b34801561014a57600080fd5b50610134610159366004610902565b61036b565b34801561016a57600080fd5b506002546001600160a01b03165b6040516001600160a01b0390911681526020016100cf565b34801561019c57600080fd5b506101b06101ab366004610974565b61053b565b6040516100cf929190610a09565b3480156101ca57600080fd5b506001546100c5565b3480156101df57600080fd5b506101786101ee366004610a61565b6105e5565b336001600160a01b037f000000000000000000000000000000000000000000000000000000000000000016146102725760405163073e64fd60e21b81523360048201526001600160a01b037f00000000000000000000000000000000000000000000000000000000000000001660248201526044015b60405180910390fd5b61027c8282610614565b5050565b7f00000000000000000000000000000000000000000000000000000000000000003410156102c15760405163246b904d60e01b815260040160405180910390fd5b6000600254600160a01b900460ff1660018111156102e1576102e16107cb565b146102ff5760405163349289c560e21b815260040160405180910390fd5b600080546001810182558180527f290decd9548b62a8d60345a988386fc84ba6bc95484008f6362f93160ef3e5630180546001600160a01b0319163390811790915560405190917f819fbd717c9d0b421352c5116a644ca68ba176960c33f406f08d98a27370ca2791a2565b60006103856040518060200160405280600081525061053b565b509050806103db57600054600254479190600160a01b900460ff1660018111156103b1576103b16107cb565b604051631d46b04360e11b8152600481019390935260248301919091526044820152606401610269565b60028054600160a01b60ff60a01b199091161790556040516305d3b1d360e41b81527f000000000000000000000000000000000000000000000000000000000000000060048201527f000000000000000000000000000000000000000000000000000000000000000067ffffffffffffffff166024820152600360448201527f000000000000000000000000000000000000000000000000000000000000000063ffffffff166064820152600160848201526000906001600160a01b037f00000000000000000000000000000000000000000000000000000000000000001690635d3b1d309060a4016020604051808303816000875af11580156104e3573d6000803e3d6000fd5b505050506040513d601f19601f820116820180604052508101906105079190610a7a565b60405190915081907fde6349b018d6c03d837b67d9a198a6ba4842546f2295fe963fae141e5dbaef8190600090a250505050565b6000606060007f0000000000000000000000000000000000000000000000000000000000000000600154426105709190610a93565b10159050600080600254600160a01b900460ff166001811115610595576105956107cb565b6000549114915015154715158380156105ab5750825b80156105b45750815b80156105bd5750805b60408051808201909152600381526203078360ec1b6020820152909890975095505050505050565b60008082815481106105f9576105f9610aba565b6000918252602090912001546001600160a01b031692915050565b6000805482518390839061062a5761062a610aba565b602002602001015161063c9190610ad0565b9050600080828154811061065257610652610aba565b600091825260208083209190910154600280546001600160a81b0319166001600160a01b0390921691821790556040805184815292830190819052915190935061069d929190610751565b50426001556040516001600160a01b038216907fb112587e57bfa970257f3d54fc52859c6300f6bd7a982462c320fed45c2530ed90600090a26000816001600160a01b03164760405160006040518083038185875af1925050503d8060008114610723576040519150601f19603f3d011682016040523d82523d6000602084013e610728565b606091505b505090508061074a5760405163a1d04b3960e01b815260040160405180910390fd5b5050505050565b8280548282559060005260206000209081019282156107a6579160200282015b828111156107a657825182546001600160a01b0319166001600160a01b03909116178255602090920191600190910190610771565b506107b29291506107b6565b5090565b5b808211156107b257600081556001016107b7565b634e487b7160e01b600052602160045260246000fd5b602081016002831061080357634e487b7160e01b600052602160045260246000fd5b91905290565b634e487b7160e01b600052604160045260246000fd5b604051601f8201601f1916810167ffffffffffffffff8111828210171561084857610848610809565b604052919050565b6000806040838503121561086357600080fd5b8235915060208084013567ffffffffffffffff8082111561088357600080fd5b818601915086601f83011261089757600080fd5b8135818111156108a9576108a9610809565b8060051b91506108ba84830161081f565b81815291830184019184810190898411156108d457600080fd5b938501935b838510156108f2578435825293850193908501906108d9565b8096505050505050509250929050565b6000806020838503121561091557600080fd5b823567ffffffffffffffff8082111561092d57600080fd5b818501915085601f83011261094157600080fd5b81358181111561095057600080fd5b86602082850101111561096257600080fd5b60209290920196919550909350505050565b6000602080838503121561098757600080fd5b823567ffffffffffffffff8082111561099f57600080fd5b818501915085601f8301126109b357600080fd5b8135818111156109c5576109c5610809565b6109d7601f8201601f1916850161081f565b915080825286848285010111156109ed57600080fd5b8084840185840137600090820190930192909252509392505050565b821515815260006020604081840152835180604085015260005b81811015610a3f57858101830151858201606001528201610a23565b506000606082860101526060601f19601f830116850101925050509392505050565b600060208284031215610a7357600080fd5b5035919050565b600060208284031215610a8c57600080fd5b5051919050565b81810381811115610ab457634e487b7160e01b600052601160045260246000fd5b92915050565b634e487b7160e01b600052603260045260246000fd5b600082610aed57634e487b7160e01b600052601260045260246000fd5b50069056fea26469706673582212209ccdf2c928aed5f18b95d67593416af08f3f51b8e98f4070dfbd777be78a680364736f6c63430008130033000000000000000000000000000000000000000000000000002386f26fc10000000000000000000000000000000000000000000000000000000000000000001e0000000000000000000000008103b0a8a00be2ddc778e6e7eaa21791cd364625474e34a077df58807dbe9c96d3c009b23b3c6d0cce433e59bbf5b34f823bc56c000000000000000000000000000000000000000000000000000000000000147c000000000000000000000000000000000000000000000000000000000007a120",
        "nonce": "0x44",
        "accessList": []
      },
      "additionalContracts": [],
      "isFixedGasLimit": false
    },
    {
      "hash": "0xbf3c9fa02500cfd20690d7974fe1a99e4859e3a48cd4a247757096fd818c1d06",
      "transactionType": "CALL",
      "contractName": "VRFCoordinatorV2",
      "contractAddress": "0x8103B0A8A00be2DDC778e6e7eaa21791Cd364625",
      "function": "addConsumer(uint64,address)",
      "arguments": [
        "5244",
        "0xa26515A027dbf32fF25391B8f6f98CB5a6f6412e"
      ],
      "transaction": {
        "type": "0x02",
        "from": "0x0c3d5bb381c4904dc83923dc467ce74aa0c92279",
        "to": "0x8103b0a8a00be2ddc778e6e7eaa21791cd364625",
        "gas": "0x21eb0",
        "value": "0x0",
        "data": "0x7341c10c000000000000000000000000000000000000000000000000000000000000147c000000000000000000000000a26515a027dbf32ff25391b8f6f98cb5a6f6412e",
        "nonce": "0x45",
        "accessList": []
      },
      "additionalContracts": [],
      "isFixedGasLimit": false
    }
  ],
  "receipts": [
    {
      "transactionHash": "0xeaf43b5d95f42caaebf2d01635e631ad8ed847193a39cc3b29d7999f2c005583",
      "transactionIndex": "0x4",
      "blockHash": "0xdc400c847501c465c8e8be6568077e3ee47f2a53b0076b429c3dc2c857a6ff90",
      "blockNumber": "0x4162dc",
      "from": "0x0C3D5BB381C4904DC83923dc467cE74Aa0c92279",
      "to": null,
      "cumulativeGasUsed": "0x2aa71f",
      "gasUsed": "0xb55e6",
      "contractAddress": "0x129A034062E37dC2C45ADA9D244AD8a04276d368",
      "logs": [],
      "status": "0x1",
      "logsBloom": "0x00000000000000000000000000000000000000000000000000000000000000000000000000000000000000000000000000000000000000000000000000000000000000000000000000000000000000000000000000000000000000000000000000000000000000000000000000000000000000000000000000000000000000000000000000000000000000000000000000000000000000000000000000000000000000000000000000000000000000000000000000000000000000000000000000000000000000000000000000000000000000000000000000000000000000000000000000000000000000000000000000000000000000000000000000000000",
      "type": "0x2",
      "effectiveGasPrice": "0xb2d05e34"
    },
    {
      "transactionHash": "0x072f5888e54cc6905c347a18dd40977afce2c23b6b184dca83ae36acb10f8a5e",
      "transactionIndex": "0x5",
      "blockHash": "0xdc400c847501c465c8e8be6568077e3ee47f2a53b0076b429c3dc2c857a6ff90",
      "blockNumber": "0x4162dc",
      "from": "0x0C3D5BB381C4904DC83923dc467cE74Aa0c92279",
      "to": "0x8103B0A8A00be2DDC778e6e7eaa21791Cd364625",
      "cumulativeGasUsed": "0x2b90a9",
      "gasUsed": "0xe98a",
      "contractAddress": null,
      "logs": [
        {
          "address": "0x8103B0A8A00be2DDC778e6e7eaa21791Cd364625",
          "topics": [
            "0x464722b4166576d3dcbba877b999bc35cf911f4eaf434b7eba68fa113951d0bf",
            "0x000000000000000000000000000000000000000000000000000000000000147c"
          ],
          "data": "0x0000000000000000000000000c3d5bb381c4904dc83923dc467ce74aa0c92279",
          "blockHash": "0xdc400c847501c465c8e8be6568077e3ee47f2a53b0076b429c3dc2c857a6ff90",
          "blockNumber": "0x4162dc",
          "transactionHash": "0x072f5888e54cc6905c347a18dd40977afce2c23b6b184dca83ae36acb10f8a5e",
          "transactionIndex": "0x5",
          "logIndex": "0x7",
          "removed": false
        }
      ],
      "status": "0x1",
      "logsBloom": "0x0000000000000000000001000000000000000000000000000000000000000000010000000000000000000000000000100000000000000000000000000000000000000000000000000000000000000000000000000000000000000000000000000000000000002000000000000000000000000000000000000000000000000000000000000c000020000000000000000000000000000000000000000000000000000000000000000000000000000000000000000000000000000000000000000080000000000000200000000000000000000000000000000000000000000000000000000000000000000000000000000000000000000000000000000000000000",
      "type": "0x2",
      "effectiveGasPrice": "0xb2d05e34"
    },
    {
      "transactionHash": "0xfe7d92aec37abb9bb00e205eba8ded295375b5778d528db50b661c6a996431b9",
      "transactionIndex": "0x6",
      "blockHash": "0xdc400c847501c465c8e8be6568077e3ee47f2a53b0076b429c3dc2c857a6ff90",
      "blockNumber": "0x4162dc",
      "from": "0x0C3D5BB381C4904DC83923dc467cE74Aa0c92279",
      "to": "0x779877A7B0D9E8603169DdbD7836e478b4624789",
      "cumulativeGasUsed": "0x2cbaf3",
      "gasUsed": "0x12a4a",
      "contractAddress": null,
      "logs": [
        {
          "address": "0x779877A7B0D9E8603169DdbD7836e478b4624789",
          "topics": [
            "0xddf252ad1be2c89b69c2b068fc378daa952ba7f163c4a11628f55a4df523b3ef",
            "0x0000000000000000000000000c3d5bb381c4904dc83923dc467ce74aa0c92279",
            "0x0000000000000000000000008103b0a8a00be2ddc778e6e7eaa21791cd364625"
          ],
          "data": "0x00000000000000000000000000000000000000000000000029a2241af62c0000",
          "blockHash": "0xdc400c847501c465c8e8be6568077e3ee47f2a53b0076b429c3dc2c857a6ff90",
          "blockNumber": "0x4162dc",
          "transactionHash": "0xfe7d92aec37abb9bb00e205eba8ded295375b5778d528db50b661c6a996431b9",
          "transactionIndex": "0x6",
          "logIndex": "0x8",
          "removed": false
        },
        {
          "address": "0x779877A7B0D9E8603169DdbD7836e478b4624789",
          "topics": [
            "0xe19260aff97b920c7df27010903aeb9c8d2be5d310a2c67824cf3f15396e4c16",
            "0x0000000000000000000000000c3d5bb381c4904dc83923dc467ce74aa0c92279",
            "0x0000000000000000000000008103b0a8a00be2ddc778e6e7eaa21791cd364625"
          ],
          "data": "0x00000000000000000000000000000000000000000000000029a2241af62c000000000000000000000000000000000000000000000000000000000000000000400000000000000000000000000000000000000000000000000000000000000020000000000000000000000000000000000000000000000000000000000000147c",
          "blockHash": "0xdc400c847501c465c8e8be6568077e3ee47f2a53b0076b429c3dc2c857a6ff90",
          "blockNumber": "0x4162dc",
          "transactionHash": "0xfe7d92aec37abb9bb00e205eba8ded295375b5778d528db50b661c6a996431b9",
          "transactionIndex": "0x6",
          "logIndex": "0x9",
          "removed": false
        },
        {
          "address": "0x8103B0A8A00be2DDC778e6e7eaa21791Cd364625",
          "topics": [
            "0xd39ec07f4e209f627a4c427971473820dc129761ba28de8906bd56f57101d4f8",
            "0x000000000000000000000000000000000000000000000000000000000000147c"
          ],
          "data": "0x000000000000000000000000000000000000000000000000000000000000000000000000000000000000000000000000000000000000000029a2241af62c0000",
          "blockHash": "0xdc400c847501c465c8e8be6568077e3ee47f2a53b0076b429c3dc2c857a6ff90",
          "blockNumber": "0x4162dc",
          "transactionHash": "0xfe7d92aec37abb9bb00e205eba8ded295375b5778d528db50b661c6a996431b9",
          "transactionIndex": "0x6",
          "logIndex": "0xa",
          "removed": false
        }
      ],
      "status": "0x1",
      "logsBloom": "0x0000001400000000000000000000000000000000000000020000000002000000002000000000800000000000000000100000000000000000000000000000000000000000000000000000000800000000000000000000000000002000000000000000000000002000000000000000000000000000400000000000001000000000000000000c000020000000000000800010000020000000000000000000000000000000000000000000000000000000000080000000000000000400000000000080000002000000000000040000000000000000000000000100000000000000000000000000000000000000000000000000000000000000000000000000000000",
      "type": "0x2",
      "effectiveGasPrice": "0xb2d05e34"
    },
    {
      "transactionHash": "0xbf4154bd5b85e05b7bb549727bc86127c389fc9e39be89f81ff448a7b3587fe5",
      "transactionIndex": "0x7",
      "blockHash": "0xdc400c847501c465c8e8be6568077e3ee47f2a53b0076b429c3dc2c857a6ff90",
      "blockNumber": "0x4162dc",
      "from": "0x0C3D5BB381C4904DC83923dc467cE74Aa0c92279",
      "to": null,
      "cumulativeGasUsed": "0x376317",
      "gasUsed": "0xaa824",
      "contractAddress": "0xa26515A027dbf32fF25391B8f6f98CB5a6f6412e",
      "logs": [],
      "status": "0x1",
      "logsBloom": "0x00000000000000000000000000000000000000000000000000000000000000000000000000000000000000000000000000000000000000000000000000000000000000000000000000000000000000000000000000000000000000000000000000000000000000000000000000000000000000000000000000000000000000000000000000000000000000000000000000000000000000000000000000000000000000000000000000000000000000000000000000000000000000000000000000000000000000000000000000000000000000000000000000000000000000000000000000000000000000000000000000000000000000000000000000000000",
      "type": "0x2",
      "effectiveGasPrice": "0xb2d05e34"
    },
    {
      "transactionHash": "0xbf3c9fa02500cfd20690d7974fe1a99e4859e3a48cd4a247757096fd818c1d06",
      "transactionIndex": "0x8",
      "blockHash": "0xdc400c847501c465c8e8be6568077e3ee47f2a53b0076b429c3dc2c857a6ff90",
      "blockNumber": "0x4162dc",
      "from": "0x0C3D5BB381C4904DC83923dc467cE74Aa0c92279",
      "to": "0x8103B0A8A00be2DDC778e6e7eaa21791Cd364625",
      "cumulativeGasUsed": "0x38d629",
      "gasUsed": "0x17312",
      "contractAddress": null,
      "logs": [
        {
          "address": "0x8103B0A8A00be2DDC778e6e7eaa21791Cd364625",
          "topics": [
            "0x43dc749a04ac8fb825cbd514f7c0e13f13bc6f2ee66043b76629d51776cff8e0",
            "0x000000000000000000000000000000000000000000000000000000000000147c"
          ],
          "data": "0x000000000000000000000000a26515a027dbf32ff25391b8f6f98cb5a6f6412e",
          "blockHash": "0xdc400c847501c465c8e8be6568077e3ee47f2a53b0076b429c3dc2c857a6ff90",
          "blockNumber": "0x4162dc",
          "transactionHash": "0xbf3c9fa02500cfd20690d7974fe1a99e4859e3a48cd4a247757096fd818c1d06",
          "transactionIndex": "0x8",
          "logIndex": "0xb",
          "removed": false
        }
      ],
      "status": "0x1",
      "logsBloom": "0x000000000000000000000000000000000000000000000000000000000000000000000000000000000000000000000010000000000000000000000000000000000000000000000000000000000000000000000000000000000000000000000000000000000000a000000000000000000000000000000000000000000000000000000000000c000020000000000000000000000000000000000000000000000000000000000000000000000080000000000000000000000000000000000000000080000000000000000000000000000000000000000000000000020000000000000000000000000000000000000000000000000000000000000000000000000000",
      "type": "0x2",
      "effectiveGasPrice": "0xb2d05e34"
    }
  ],
  "libraries": [
    "lib/foundry-devops/src/DevOpsTools.sol:DevOpsTools:0x129a034062e37dc2c45ada9d244ad8a04276d368"
  ],
  "pending": [],
  "returns": {
    "1": {
      "internal_type": "contract HelperConfig",
      "value": "0xC7f2Cf4845C6db0e1a1e91ED41Bcd0FcC1b0E141"
    },
    "0": {
      "internal_type": "contract Raffle",
      "value": "0xa26515A027dbf32fF25391B8f6f98CB5a6f6412e"
    }
  },
  "timestamp": 1694672530,
  "chain": 11155111,
  "multi": false,
  "commit": "0841672"
}